:020000040000FA
:060000000A128A110C280F
:10000800FE00030EF2000A08F3000A128A111628ED
:100018000A128A110F28F701F801F90183010A125F
:100028008A1165280B1C19281A284A2883120313D9
:10003800061C1F2820282228F901F90A0618252855
:10004800262832287903031D2A282B283228F9016B
:100058007708013EF1007108F7005E28861C3528F4
:1000680036283828F801F80A86183B283C284828FA
:100078007803031D402841284828F8017708FF3EE7
:10008800F1007108F7005E280B105E288312031335
:100098008C1D4F2850285E280A128A11BF200A1288
:1000A8008A1177080A128A11CF200A128A1183123C
:1000B80003138C1173088A00720E8300FE0E7E0EE5
:1000C80009007030831603138F048F110F118F10DE
:1000D8000F148B170B178B150B1016149614831609
:1000E80003178801890183160313850183120313FB
:1000F80085010330831603138600870183120313D7
:1001080086018316031388018312031388011030B4
:100118008316031387008516F401F501F6012430D0
:100128000A128A11A1200A128A117708831203136E
:10013800880099280A128A110C2883120313A00038
:1001480083160313871283120313201DAC28AD28CE
:10015800B32876088316031394008715B928740802
:10016800760483160313940087118312031320085F
:100178007504940008000A128A11C8200A128A110C
:10018800831203131308080083160313141CCD28C5
:10019800CE28C8280800F0007008831203139300C3
:0201A80008004D
:04400E00F420FF3F5C
:00000001FF
