:020000040000FA
:060000000A128A110C280F
:10000800FE00030EF1000A08F2000A128A115828AD
:100018000A128A110F28F701F801F90183010A125F
:100028008A1116287030831603138F048F110F114D
:100038008F100F148B170B178B150B1016149614A3
:100048008316031788018901831603138501831218
:100058000313850103308316031386008701831277
:10006800031386018316031388018312031388017F
:1000780010308316031387008516F301F401F50188
:1000880024300A128A1192200A128A1177088312E0
:100098000313880077080A128A11A8200A128A1105
:1000A8004A280A128A110C280B1C5B285C288B280A
:1000B80083120313061C612862286428F901F90ACF
:1000C80006186728682874287903031D6C286D288A
:1000D8007428F9017708013EF0007008F7008B28B2
:1000E800861C772878287A28F801F80A86187D2847
:1000F8007E288A287803031D822883288A28F80105
:100108007708FF3EF0007008F7008B280B10720884
:100118008A00710E8300FE0E7E0E0900F60083161B
:1001280003138712761D99289A289E28750894002B
:100138008715A2287308750494008711760874043B
:100148008312031394000800F30073088312031347
:040158009300080008
:04400E00F420FF3F5C
:00000001FF
