:020000040000FA
:060000000A128A110C280F
:10000800FE00030EF4000A08F5000A128A111628E9
:100018000A128A110F28F001F101F20183010A1274
:100028008A1150280B1C19281A28492883120313EF
:10003800061C1F2820282228F201F20A0618252863
:10004800262832287203031D2A282B283228F20179
:100058007008013EF3007308F0004928861C352813
:1000680036283828F101F10A86183B283C28482808
:100078007103031D402841284828F1017008FF3EFC
:10008800F3007308F00049280B1075088A00740EF5
:100098008300FE0E7E0E09007030831603138F0452
:1000A8008F110F118F100F148B170B178B150B1047
:1000B80016149614831603178801890183160313EF
:1000C8008501831203138501033083160313860009
:1000D8008701831203138601831603138801831291
:1000E800031388017008880076280A128A110C28E0
:04400E00F420FF3F5C
:00000001FF
