:020000040000FA
:060000000A128A110C280F
:10000800FE00030EF1000A08F2000A128A1198286D
:100018000A128A110F28F90183010A128A11142879
:100028007030831603138F048F110F118F100F1464
:1000380001308316031788008901013083160313E2
:100048008500831203138501831603138701880132
:100058008312031388011030831603138700851653
:10006800F301F401F50124300A128A1182200A12E0
:100078008A1179080A128A11C3200A128A110A12EF
:100088008A11AE200A128A11831603139F1783124E
:1000980003131F142730F800F530F700F70B522828
:1000A800F80B5228831203139F149F185C285D28AD
:1000B8005928333079020318622863286628071400
:1000C8008710071133307902031C6B286C287528B8
:1000D8004A30790203187128722875280710871486
:1000E80007114A307902031C7A287B283D2807101B
:1000F800871007153D280A128A110C28F600831666
:1001080003138712761D89288A288E28750894007B
:10011800871592287308750494008711760874046B
:100128008312031394000800831203130C1F9D28E5
:100138009E28A728831603131E08F0007008F900EC
:10014800831203130C1372088A00710E8300FE0ECB
:100158007E0E09008B170B17831603130C178312D7
:1001680003130C131F083F3940389F00C3309F0505
:100178001F14831603139F139F121F120800F30006
:0A01880073088312031393000800AC
:04400E00F420FF3F5C
:00000001FF
