:020000040000FA
:060000000A128A110C280F
:10000800FE00030EF2000A08F3000A128A117F2884
:100018000A128A110F28F80183010A128A1114287A
:100028007030831603138F048F110F118F100F1464
:1000380001308316031788008901013083160313E2
:100048008500831203138501831603138701880132
:100058008312031388011030831603138700851653
:10006800F401F501F60124300A128A11A8200A12B7
:100078008A110A128A11BE200A128A1183160313E2
:100088009F17831203131F14273083120313A10031
:10009800F430A000A00B4E28A10B4E2800008312BC
:1000A80003139F149F1859285A285628333078026A
:1000B80003185F2860286328071487100711333056
:1000C8007802031C6828692872284A3078020318C5
:1000D8006E286F2872280710871407114A30780293
:1000E800031C772878283D280710871007153D2816
:1000F8000A128A110C28831203130C1F84288528DE
:100108008F28831603131E08F1007108F800831264
:1001180003130C13A1288C1D92289328A1280A12D6
:100128008A11D3200A128A1178080A128A11E32048
:100138000A128A11831203138C1173088A00720E33
:100148008300FE0E7E0E0900F70083160313871244
:10015800771DAF28B028B428760894008715B828EA
:1001680074087604940087117708750483120313C2
:10017800940008008B170B17831603130C178312B0
:1001880003130C131F083F3940389F00C3309F05E5
:100198001F14831603139F139F121F1208000A12BD
:1001A8008A11DC200A128A1183120313130808002B
:1001B80083160313141CE128E228DC280800F00049
:0A01C800700883120313930008006F
:04400E00F420FF3F5C
:00000001FF
