:020000040000FA
:060000000A128A110C280F
:10000800FE00030EF1000A08F2000A128A116428A1
:100018000A128A110F28F30183010A128A1114287F
:100028007030831603138F048F110F118F100F1464
:1000380001308316031788008901013083160313E2
:100048008500831203138501831603138701880132
:100058008312031388010A128A117A200A128A115C
:10006800831603139F17831203131F149F149F18DB
:100078003E283F283B28333073020318442845287C
:10008800482807148710071133307302031C4D28C2
:100098004E2857284A3073020318532854285728E3
:1000A8000710871407114A307302031C5C285D2867
:1000B8002F280710871007152F280A128A110C28D5
:1000C800831203130C1F69286A28732883160313E5
:1000D8001E08F0007008F300831203130C13720853
:1000E8008A00710E8300FE0E7E0E09008B170B1717
:1000F800831603130C17831203130C131F083F39BD
:1001080040389F00C3309F051F14831603139F13A5
:060118009F121F120800F7
:04400E00F420FF3F5C
:00000001FF
