:020000040000FA
:060000000A128A11F92F1B
:100E2A00F00070088312031393000800831603135B
:100E3A00141C202F212F1B2F08000A128A111B278E
:100E4A000A128A118312031313080800F300831687
:100E5A0003138712731D322F332F372F7208940012
:100E6A0087153B2F70087204940087117308710468
:100E7A00831203139400080083160317880189015B
:100E8A00831603138501870107168312031385014D
:100E9A00831603138801831203138801F001F101F9
:100EAA00F20120300A128A112B270A128A118312A0
:100EBA00031307100330F5009730F400F40B632F87
:100ECA00F50B632F682F01300A128A1115270A12AF
:100EDA008A110A128A1122270A128A11F400740846
:100EEA00F9000330F5009730F400F40B7A2FF50B74
:100EFA007A2F7F2F8312031307140330F6008A30E8
:100F0A00F5005530F400F40B882FF50B882FF60BFB
:100F1A00882F8F2F8312031387100330F500973021
:100F2A00F400F40B962FF50B962F9B2F01300A1223
:100F3A008A1115270A128A110A128A1122270A12FD
:100F4A008A11F4007408F8000330F5009730F400B1
:100F5A00F40BAD2FF50BAD2FB22F831203138714A9
:100F6A000330F6008A30F5005530F400F40BBB2F3D
:100F7A00F50BBB2FF60BBB2FC22F831203130711DE
:100F8A000330F5009730F400F40BC92FF50BC92F85
:100F9A00CE2F01300A128A1115270A128A110A1253
:100FAA008A1122270A128A11F4007408F700033002
:100FBA00F5009730F400F40BE02FF50BE02FE52F46
:100FCA008312031307150330F6008A30F5005530F3
:100FDA00F400F40BEE2FF50BEE2FF60BEE2FF52F98
:100FEA005C2F0A128A110028F701F801F90183011E
:060FFA000A128A11412FCA
:04400E00F420FF3F5C
:00000001FF
