:020000040000FA
:060000000A128A110C280F
:10000800FE00030EF1000A08F2000A128A115528B0
:100018000A128A110F28F30183010A128A1114287F
:100028007030831603138F048F110F118F100F1464
:10003800831603178801890101308316031385008D
:100048008312031385018316031388018312031394
:1000580088010A128A1140200A128A118312031396
:100068001F149F149F1839283A28362873088800C7
:100078002D280A128A110C288B170B1783160313C5
:100088000C17831203130C131F083F3940389F00C5
:10009800C3309F051F14831603139F139F121F124B
:1000A8000800831203130C1F5A285B2860281E08B7
:1000B800F0007008F3000C1372088A00710E8300B8
:0600C800FE0E7E0E090091
:04400E00F420FF3F5C
:00000001FF
