:020000040000FA
:060000000A128A110C280F
:10000800FE00030EF2000A08F3000A128A115E28A5
:100018000A128A110F28F80183010A128A1114287A
:100028007030831603138F048F110F118F100F1464
:10003800831603178801890101308316031385008D
:1000480083160317081483120313850183160313F9
:100058008801831203138801103083160313870065
:100068008516F401F501F60124300A128A1183205D
:100078000A128A110A128A1199200A128A11831205
:1000880003131F14273083120313A100F430A000B8
:10009800A00B4C28A10B4C280000831203139F14BB
:1000A8009F18572858285428780888003E280A128C
:1000B8008A110C28831203130C1F632864286A28EA
:1000C8001E08F1007108F8000C137C288C1D6D289F
:1000D8006E287C280A128A11AE200A128A11780822
:1000E8000A128A11BE200A128A11831203138C1174
:1000F80073088A00720E8300FE0E7E0E0900F70058
:10010800831603138712771D8A288B288F28760871
:10011800940087159328740876049400871177084B
:10012800750483120313940008008B170B178316AA
:1001380003130C17831203130C131F083F3940389D
:100148009F00C3309F051F14831603139F139F122C
:100158001F1208000A128A11B7200A128A11831284
:1001680003131308080083160313141CBC28BD28A6
:10017800B7280800F00070088312031393000800E2
:04400E00F420FF3F5C
:00000001FF
