:020000040000FA
:060000000A128A110C280F
:10000800FE00030EF1000A08F2000A128A118C2879
:100018000A128A110F28F90183010A128A11142879
:100028007030831603138F048F110F118F100F1464
:10003800831603178801890101308316031385008D
:1000480083160317081483120313850183160313F9
:100058008801831203138801103083160313870065
:100068008516F301F401F50124300A128A11612082
:100078000A128A1179080A128A119E200A128A1114
:100088000A128A1177200A128A11831203131F1485
:100098002730F800F530F700F70B5028F80B5028F8
:1000A800831203139F149F185A285B28572879082E
:1000B80088003E280A128A110C28F60083160313BA
:1000C8008712761D682869286D2875089400871599
:1000D80071287308750494008711760874048312D4
:1000E8000313940008008B170B17831603130C17C0
:1000F800831203130C131F083F3940389F00C33085
:100108009F051F14831603139F139F121F120800C5
:10011800831203130C1F9128922897281E08F000B9
:100128007008F9000C1372088A00710E8300FE0E25
:100138007E0E0900F300730883120313930008006E
:04400E00F420FF3F5C
:00000001FF
